:100000000C942A000C9434000C9434000C943400AA
:100010000C9434000C9434000C9434000C94340090
:100020000C9434000C9434000C9434000C94340080
:100030000C9434000C9434000C9434000C94340070
:100040000C9434000C9434000C9434000C94340060
:100050000C94340011241FBECFE5D8E0DEBFCDBF25
:100060000E9436000C945A000C94000087B38760FD
:1000700087BB20E030E061E070E048EC50E0CB016D
:10008000022E02C0880F991F0A94E2F788BB88E805
:1000900093E1FA013197F1F70197D9F72F5F3F4FBD
:1000A0002330310561F780E090E0089587B38760E1
:0800B00087BB0895F894FFCF0F
:00000001FF
